{
  "contractName": "Bank",
  "abi": [
    {
      "inputs": [
        {
          "internalType": "address",
          "name": "_bankToken",
          "type": "address"
        },
        {
          "internalType": "uint256",
          "name": "_interestRate",
          "type": "uint256"
        }
      ],
      "stateMutability": "nonpayable",
      "type": "constructor"
    },
    {
      "inputs": [],
      "name": "bankToken",
      "outputs": [
        {
          "internalType": "address",
          "name": "",
          "type": "address"
        }
      ],
      "stateMutability": "view",
      "type": "function"
    },
    {
      "inputs": [
        {
          "internalType": "address",
          "name": "",
          "type": "address"
        }
      ],
      "name": "hasStaked",
      "outputs": [
        {
          "internalType": "bool",
          "name": "",
          "type": "bool"
        }
      ],
      "stateMutability": "view",
      "type": "function"
    },
    {
      "inputs": [
        {
          "internalType": "uint256",
          "name": "",
          "type": "uint256"
        }
      ],
      "name": "stakers",
      "outputs": [
        {
          "internalType": "address",
          "name": "",
          "type": "address"
        }
      ],
      "stateMutability": "view",
      "type": "function"
    },
    {
      "inputs": [
        {
          "internalType": "address",
          "name": "",
          "type": "address"
        }
      ],
      "name": "stakingBalance",
      "outputs": [
        {
          "internalType": "uint256",
          "name": "",
          "type": "uint256"
        }
      ],
      "stateMutability": "view",
      "type": "function"
    },
    {
      "inputs": [],
      "name": "usdc",
      "outputs": [
        {
          "internalType": "address",
          "name": "",
          "type": "address"
        }
      ],
      "stateMutability": "view",
      "type": "function"
    },
    {
      "inputs": [
        {
          "internalType": "uint256",
          "name": "_amount",
          "type": "uint256"
        }
      ],
      "name": "stakeTokens",
      "outputs": [],
      "stateMutability": "nonpayable",
      "type": "function"
    },
    {
      "inputs": [
        {
          "internalType": "uint256",
          "name": "_amount",
          "type": "uint256"
        }
      ],
      "name": "unstakeTokens",
      "outputs": [],
      "stateMutability": "nonpayable",
      "type": "function"
    },
    {
      "inputs": [
        {
          "internalType": "bytes",
          "name": "",
          "type": "bytes"
        }
      ],
      "name": "checkUpkeep",
      "outputs": [
        {
          "internalType": "bool",
          "name": "upkeepNeeded",
          "type": "bool"
        },
        {
          "internalType": "bytes",
          "name": "",
          "type": "bytes"
        }
      ],
      "stateMutability": "nonpayable",
      "type": "function"
    },
    {
      "inputs": [
        {
          "internalType": "bytes",
          "name": "",
          "type": "bytes"
        }
      ],
      "name": "performUpkeep",
      "outputs": [],
      "stateMutability": "nonpayable",
      "type": "function"
    },
    {
      "inputs": [],
      "name": "calculateInterestToken",
      "outputs": [],
      "stateMutability": "nonpayable",
      "type": "function"
    },
    {
      "inputs": [
        {
          "internalType": "address",
          "name": "_user",
          "type": "address"
        }
      ],
      "name": "viewBalance",
      "outputs": [
        {
          "internalType": "uint256",
          "name": "",
          "type": "uint256"
        }
      ],
      "stateMutability": "view",
      "type": "function"
    },
    {
      "inputs": [
        {
          "internalType": "address",
          "name": "_user",
          "type": "address"
        }
      ],
      "name": "viewAccumulatedInterest",
      "outputs": [
        {
          "internalType": "uint256",
          "name": "",
          "type": "uint256"
        }
      ],
      "stateMutability": "view",
      "type": "function"
    }
  ],
  "bytecode": "0x608060405260056004553480156200001657600080fd5b50604051620017293803806200172983398181016040528101906200003c91906200018c565b73eb8f08a975ab53e34d8a0330e0d34de942c959266000806101000a81548173ffffffffffffffffffffffffffffffffffffffff021916908373ffffffffffffffffffffffffffffffffffffffff16021790555081600160006101000a81548173ffffffffffffffffffffffffffffffffffffffff021916908373ffffffffffffffffffffffffffffffffffffffff16021790555042600281905550806003819055505050620001d3565b600080fd5b600073ffffffffffffffffffffffffffffffffffffffff82169050919050565b60006200011982620000ec565b9050919050565b6200012b816200010c565b81146200013757600080fd5b50565b6000815190506200014b8162000120565b92915050565b6000819050919050565b620001668162000151565b81146200017257600080fd5b50565b60008151905062000186816200015b565b92915050565b60008060408385031215620001a657620001a5620000e7565b5b6000620001b6858286016200013a565b9250506020620001c98582860162000175565b9150509250929050565b61154680620001e36000396000f3fe608060405234801561001057600080fd5b50600436106100b45760003560e01c80638670872b116100715780638670872b1461018c578063b2d0f081146101aa578063c1a13d1a146101b4578063c93c8f34146101e4578063e60bbcd414610214578063fd5e6dd114610244576100b4565b80633e413bee146100b95780634585e33b146100d757806345bc78ab146100f3578063608e4dd0146101235780636e04ff0d1461013f5780637547c7a314610170575b600080fd5b6100c1610274565b6040516100ce9190610c51565b60405180910390f35b6100f160048036038101906100ec9190610cdb565b610298565b005b61010d60048036038101906101089190610d54565b6102c4565b60405161011a9190610d9a565b60405180910390f35b61013d60048036038101906101389190610de1565b6102dc565b005b61015960048036038101906101549190610cdb565b6104c1565b604051610167929190610ec2565b60405180910390f35b61018a60048036038101906101859190610de1565b6104e1565b005b610194610747565b6040516101a19190610c51565b60405180910390f35b6101b261076d565b005b6101ce60048036038101906101c99190610d54565b6108eb565b6040516101db9190610d9a565b60405180910390f35b6101fe60048036038101906101f99190610d54565b610934565b60405161020b9190610ef2565b60405180910390f35b61022e60048036038101906102299190610d54565b610954565b60405161023b9190610d9a565b60405180910390f35b61025e60048036038101906102599190610de1565b61099d565b60405161026b9190610c51565b60405180910390f35b60008054906101000a900473ffffffffffffffffffffffffffffffffffffffff1681565b42620151806002546102aa9190610f3c565b14156102c0576102b861076d565b426002819055505b5050565b60066020528060005260406000206000915090505481565b6000600660003373ffffffffffffffffffffffffffffffffffffffff1673ffffffffffffffffffffffffffffffffffffffff1681526020019081526020016000205490506000610343600454600a61033491906110c5565b846109dc90919063ffffffff16565b905080821015610388576040517f08c379a000000000000000000000000000000000000000000000000000000000815260040161037f9061116d565b60405180910390fd5b6103da81600660003373ffffffffffffffffffffffffffffffffffffffff1673ffffffffffffffffffffffffffffffffffffffff16815260200190815260200160002054610a5790919063ffffffff16565b600660003373ffffffffffffffffffffffffffffffffffffffff1673ffffffffffffffffffffffffffffffffffffffff1681526020019081526020016000208190555060008054906101000a900473ffffffffffffffffffffffffffffffffffffffff1673ffffffffffffffffffffffffffffffffffffffff1663a9059cbb33856040518363ffffffff1660e01b815260040161047892919061118d565b6020604051808303816000875af1158015610497573d6000803e3d6000fd5b505050506040513d601f19601f820116820180604052508101906104bb91906111e2565b50505050565b6000606042620151806002546104d79190610f3c565b1491509250929050565b60008054906101000a900473ffffffffffffffffffffffffffffffffffffffff1673ffffffffffffffffffffffffffffffffffffffff166323b872dd3330846040518463ffffffff1660e01b815260040161053e9392919061120f565b6020604051808303816000875af115801561055d573d6000803e3d6000fd5b505050506040513d601f19601f8201168201806040525081019061058191906111e2565b506105f46105a6600454600a61059791906110c5565b836109dc90919063ffffffff16565b600660003373ffffffffffffffffffffffffffffffffffffffff1673ffffffffffffffffffffffffffffffffffffffff16815260200190815260200160002054610aa190919063ffffffff16565b600660003373ffffffffffffffffffffffffffffffffffffffff1673ffffffffffffffffffffffffffffffffffffffff16815260200190815260200160002081905550600860003373ffffffffffffffffffffffffffffffffffffffff1673ffffffffffffffffffffffffffffffffffffffff16815260200190815260200160002060009054906101000a900460ff166106ec576005339080600181540180825580915050600190039060005260206000200160009091909190916101000a81548173ffffffffffffffffffffffffffffffffffffffff021916908373ffffffffffffffffffffffffffffffffffffffff1602179055505b6001600860003373ffffffffffffffffffffffffffffffffffffffff1673ffffffffffffffffffffffffffffffffffffffff16815260200190815260200160002060006101000a81548160ff02191690831515021790555050565b600160009054906101000a900473ffffffffffffffffffffffffffffffffffffffff1681565b60005b6005805490508110156108e85760006005828154811061079357610792611246565b5b9060005260206000200160009054906101000a900473ffffffffffffffffffffffffffffffffffffffff1690506000600660008373ffffffffffffffffffffffffffffffffffffffff1673ffffffffffffffffffffffffffffffffffffffff1681526020019081526020016000205490506000600760008473ffffffffffffffffffffffffffffffffffffffff1673ffffffffffffffffffffffffffffffffffffffff168152602001908152602001600020549050600061085d8284610aa190919063ffffffff16565b9050600061088a618e9461087c846003546109dc90919063ffffffff16565b610aff90919063ffffffff16565b905080600760008773ffffffffffffffffffffffffffffffffffffffff1673ffffffffffffffffffffffffffffffffffffffff16815260200190815260200160002081905550505050505080806108e090611275565b915050610770565b50565b6000600660008373ffffffffffffffffffffffffffffffffffffffff1673ffffffffffffffffffffffffffffffffffffffff168152602001908152602001600020549050919050565b60086020528060005260406000206000915054906101000a900460ff1681565b6000600760008373ffffffffffffffffffffffffffffffffffffffff1673ffffffffffffffffffffffffffffffffffffffff168152602001908152602001600020549050919050565b600581815481106109ad57600080fd5b906000526020600020016000915054906101000a900473ffffffffffffffffffffffffffffffffffffffff1681565b6000808314156109ef5760009050610a51565b600082846109fd91906112be565b9050828482610a0c9190611347565b14610a4c576040517f08c379a0000000000000000000000000000000000000000000000000000000008152600401610a43906113ea565b60405180910390fd5b809150505b92915050565b6000610a9983836040518060400160405280601e81526020017f536166654d6174683a207375627472616374696f6e206f766572666c6f770000815250610b49565b905092915050565b6000808284610ab09190610f3c565b905083811015610af5576040517f08c379a0000000000000000000000000000000000000000000000000000000008152600401610aec90611456565b60405180910390fd5b8091505092915050565b6000610b4183836040518060400160405280601a81526020017f536166654d6174683a206469766973696f6e206279207a65726f000000000000815250610bad565b905092915050565b6000838311158290610b91576040517f08c379a0000000000000000000000000000000000000000000000000000000008152600401610b8891906114ba565b60405180910390fd5b5060008385610ba091906114dc565b9050809150509392505050565b60008083118290610bf4576040517f08c379a0000000000000000000000000000000000000000000000000000000008152600401610beb91906114ba565b60405180910390fd5b5060008385610c039190611347565b9050809150509392505050565b600073ffffffffffffffffffffffffffffffffffffffff82169050919050565b6000610c3b82610c10565b9050919050565b610c4b81610c30565b82525050565b6000602082019050610c666000830184610c42565b92915050565b600080fd5b600080fd5b600080fd5b600080fd5b600080fd5b60008083601f840112610c9b57610c9a610c76565b5b8235905067ffffffffffffffff811115610cb857610cb7610c7b565b5b602083019150836001820283011115610cd457610cd3610c80565b5b9250929050565b60008060208385031215610cf257610cf1610c6c565b5b600083013567ffffffffffffffff811115610d1057610d0f610c71565b5b610d1c85828601610c85565b92509250509250929050565b610d3181610c30565b8114610d3c57600080fd5b50565b600081359050610d4e81610d28565b92915050565b600060208284031215610d6a57610d69610c6c565b5b6000610d7884828501610d3f565b91505092915050565b6000819050919050565b610d9481610d81565b82525050565b6000602082019050610daf6000830184610d8b565b92915050565b610dbe81610d81565b8114610dc957600080fd5b50565b600081359050610ddb81610db5565b92915050565b600060208284031215610df757610df6610c6c565b5b6000610e0584828501610dcc565b91505092915050565b60008115159050919050565b610e2381610e0e565b82525050565b600081519050919050565b600082825260208201905092915050565b60005b83811015610e63578082015181840152602081019050610e48565b83811115610e72576000848401525b50505050565b6000601f19601f8301169050919050565b6000610e9482610e29565b610e9e8185610e34565b9350610eae818560208601610e45565b610eb781610e78565b840191505092915050565b6000604082019050610ed76000830185610e1a565b8181036020830152610ee98184610e89565b90509392505050565b6000602082019050610f076000830184610e1a565b92915050565b7f4e487b7100000000000000000000000000000000000000000000000000000000600052601160045260246000fd5b6000610f4782610d81565b9150610f5283610d81565b9250827fffffffffffffffffffffffffffffffffffffffffffffffffffffffffffffffff03821115610f8757610f86610f0d565b5b828201905092915050565b60008160011c9050919050565b6000808291508390505b6001851115610fe957808604811115610fc557610fc4610f0d565b5b6001851615610fd45780820291505b8081029050610fe285610f92565b9450610fa9565b94509492505050565b60008261100257600190506110be565b8161101057600090506110be565b816001811461102657600281146110305761105f565b60019150506110be565b60ff84111561104257611041610f0d565b5b8360020a91508482111561105957611058610f0d565b5b506110be565b5060208310610133831016604e8410600b84101617156110945782820a90508381111561108f5761108e610f0d565b5b6110be565b6110a18484846001610f9f565b925090508184048111156110b8576110b7610f0d565b5b81810290505b9392505050565b60006110d082610d81565b91506110db83610d81565b92506111087fffffffffffffffffffffffffffffffffffffffffffffffffffffffffffffffff8484610ff2565b905092915050565b600082825260208201905092915050565b7f496e73756666696369656e742042616c616e6365000000000000000000000000600082015250565b6000611157601483611110565b915061116282611121565b602082019050919050565b600060208201905081810360008301526111868161114a565b9050919050565b60006040820190506111a26000830185610c42565b6111af6020830184610d8b565b9392505050565b6111bf81610e0e565b81146111ca57600080fd5b50565b6000815190506111dc816111b6565b92915050565b6000602082840312156111f8576111f7610c6c565b5b6000611206848285016111cd565b91505092915050565b60006060820190506112246000830186610c42565b6112316020830185610c42565b61123e6040830184610d8b565b949350505050565b7f4e487b7100000000000000000000000000000000000000000000000000000000600052603260045260246000fd5b600061128082610d81565b91507fffffffffffffffffffffffffffffffffffffffffffffffffffffffffffffffff8214156112b3576112b2610f0d565b5b600182019050919050565b60006112c982610d81565b91506112d483610d81565b9250817fffffffffffffffffffffffffffffffffffffffffffffffffffffffffffffffff048311821515161561130d5761130c610f0d565b5b828202905092915050565b7f4e487b7100000000000000000000000000000000000000000000000000000000600052601260045260246000fd5b600061135282610d81565b915061135d83610d81565b92508261136d5761136c611318565b5b828204905092915050565b7f536166654d6174683a206d756c7469706c69636174696f6e206f766572666c6f60008201527f7700000000000000000000000000000000000000000000000000000000000000602082015250565b60006113d4602183611110565b91506113df82611378565b604082019050919050565b60006020820190508181036000830152611403816113c7565b9050919050565b7f536166654d6174683a206164646974696f6e206f766572666c6f770000000000600082015250565b6000611440601b83611110565b915061144b8261140a565b602082019050919050565b6000602082019050818103600083015261146f81611433565b9050919050565b600081519050919050565b600061148c82611476565b6114968185611110565b93506114a6818560208601610e45565b6114af81610e78565b840191505092915050565b600060208201905081810360008301526114d48184611481565b905092915050565b60006114e782610d81565b91506114f283610d81565b92508282101561150557611504610f0d565b5b82820390509291505056fea2646970667358221220424d30d85bf3d2372958ac2871680bd8371ddd485ef5a987d83f3b91c3d061a864736f6c634300080a0033",
  "immutableReferences": {},
  "source": "// SPDX-License-Identifier: MIT\npragma solidity >=0.4.22 <0.9.0;\n\nimport \"../interfaces/KeeperCompatibleInterface.sol\";\nimport \"../interfaces/IERC20.sol\" ;\nimport \"./SafeMath.sol\";\n\n\ncontract Bank is  KeeperCompatibleInterface {\n\n\tusing SafeMath for uint256;\n\n\taddress public usdc;\n\taddress public bankToken;\n\tuint256 previousTime;\n\tuint256 interestRate;\n\tuint exponent = 5;\n\n\tconstructor(address _bankToken, uint256 _interestRate) public {\n\n\t\tusdc = 0xeb8f08a975Ab53E34D8a0330E0D34de942C95926;\n\t\tbankToken =  _bankToken;\n\t\tpreviousTime = block.timestamp;\n\t\tinterestRate = _interestRate;\n\t}\n\n\taddress[] public stakers;\n    mapping(address => uint) public stakingBalance;\n    mapping (address => uint) bankTokenInterest;\n    mapping(address => bool) public hasStaked;\n\n\t// allow user to stake usdc tokens in contract\n    function stakeTokens(uint _amount) public {\n\n        // Trasnfer usdc tokens to contract for staking\n        IERC20(usdc).transferFrom(msg.sender, address(this), _amount);\n\n        // Update the staking balance in map\n        stakingBalance[msg.sender] = stakingBalance[msg.sender].add(_amount.mul(10** exponent));\n\n        // Add user to stakers array if they haven't staked already\n        if(!hasStaked[msg.sender]) {\n            stakers.push(msg.sender);\n        }\n\n        hasStaked[msg.sender] = true;\n\n    }\n\n    // allow user to unstake total balance and withdraw USDC from the contract\n    function unstakeTokens(uint _amount) public {\n\n    \t// get the users staking balance in usdc\n    /*\tif(_fullWithdrawal) {\n    \t\tunstakeTokensCompletely(_amount, msg.sender);\n    \t\treturn;\n    \t}*/\n    \tuint balance = stakingBalance[msg.sender];\n    \n        // reqire the amount staked needs to be greater then 0\n        uint amountScaled = _amount.mul(10 ** exponent);\n        require(balance >= amountScaled, \"Insufficient Balance\");\n\n        // reset staking balance map to 0\n        stakingBalance[msg.sender] = stakingBalance[msg.sender].sub(amountScaled);\n    \n        // transfer usdc tokens out of this contract to the msg.sender\n        IERC20(usdc).transfer(msg.sender, _amount);\n\n\t}\n\n\tfunction unstakeTokensCompletely(address _withdrawer) internal {\n\n\t\tuint256 _amount = stakingBalance[_withdrawer];\n\t\t//require(_amount.mul(10 ** exponent) == stakingBalance[_withdrawer], \"Inalid withdrawal\");\n\n\t\tstakingBalance[_withdrawer] = 0;\n\t\tIERC20(usdc).transfer(_withdrawer, _amount);\n\t\tIERC20(bankToken).transfer(_withdrawer, bankTokenInterest[_withdrawer].div(10 ** exponent));\n\t\tbankTokenInterest[_withdrawer] = 0;\n\t}\n\n\tfunction checkUpkeep(bytes calldata ) external override returns (bool upkeepNeeded, bytes memory) {\n       \n        upkeepNeeded = (previousTime + 1 days == block.timestamp );\n\n    }\n\n    function performUpkeep(bytes calldata) external override {\n\n    \tif (previousTime + 1 days == block.timestamp ) {\n\n    \t\tcalculateInterestToken();\n    \t\tpreviousTime = block.timestamp;\n    \t}\n    }\n\n    function calculateInterestToken() public {\n\n        for (uint i=0; i<stakers.length; i++) {\n\n            address recipient = stakers[i];\n            uint principal = stakingBalance[recipient];\n            uint interest = bankTokenInterest[recipient];\n            uint amount = principal.add(interest);\n            \n           //Not exact, loss of precision due to division\n            uint newInterest = interestRate.mul(amount).div(100*365); \n            bankTokenInterest[recipient] = newInterest; \n    // if there is a balance transfer the SAME amount of bank tokens to the account that is staking as a reward\n            \n            /*if(balance >0 ) {\n                IERC20(bankToken).transfer(recipient, balance);\n                \n            }*/\n            \n        }\n        \n    }\n\n    function viewBalance(address _user) public view returns(uint) {\n    \treturn stakingBalance[_user];\n    }\n\n    function viewAccumulatedInterest(address _user) public view returns(uint) {\n    \treturn bankTokenInterest[_user];\n    }\n\n}\n\n\n//Assumptions: 1:1 peg -> USDC : BankToken\n// Can withdraw partially, bt only from the principal amt.\n// Interest transferred only when deciding to unstake the complete amount\n",
  "sourcePath": "/home/rdkgpian/Desktop/DeFi Bank/contracts/Bank.sol",
  "compiler": {
    "name": "solc",
    "version": "0.8.10+commit.fc410830.Emscripten.clang"
  },
  "schemaVersion": "3.4.3",
  "updatedAt": "2022-04-26T13:41:09.696Z",
  "devdoc": {
    "kind": "dev",
    "methods": {},
    "version": 1
  },
  "userdoc": {
    "kind": "user",
    "methods": {},
    "version": 1
  }
}